{
  "contractName": "ProducerRole",
  "abi": [
    {
      "inputs": [],
      "stateMutability": "nonpayable",
      "type": "constructor"
    },
    {
      "anonymous": false,
      "inputs": [
        {
          "indexed": true,
          "internalType": "address",
          "name": "account",
          "type": "address"
        }
      ],
      "name": "ProducerAdded",
      "type": "event"
    },
    {
      "anonymous": false,
      "inputs": [
        {
          "indexed": true,
          "internalType": "address",
          "name": "account",
          "type": "address"
        }
      ],
      "name": "ProducerRemoved",
      "type": "event"
    },
    {
      "inputs": [
        {
          "internalType": "address",
          "name": "account",
          "type": "address"
        }
      ],
      "name": "isProducer",
      "outputs": [
        {
          "internalType": "bool",
          "name": "",
          "type": "bool"
        }
      ],
      "stateMutability": "view",
      "type": "function"
    },
    {
      "inputs": [
        {
          "internalType": "address",
          "name": "account",
          "type": "address"
        }
      ],
      "name": "addProducer",
      "outputs": [],
      "stateMutability": "nonpayable",
      "type": "function"
    },
    {
      "inputs": [],
      "name": "renounceProducer",
      "outputs": [],
      "stateMutability": "nonpayable",
      "type": "function"
    }
  ],
  "bytecode": "0x608060405234801561001057600080fd5b506100203361002560201b60201c565b610307565b61003d81600061008360201b6101181790919060201c565b8073ffffffffffffffffffffffffffffffffffffffff167f2977383b0207d39ef14220620b6cf3e6c9b6e78592af90baeef6614ed2fcd2c660405160405180910390a250565b610093828261013160201b60201c565b156100d3576040517f08c379a00000000000000000000000000000000000000000000000000000000081526004016100ca90610255565b60405180910390fd5b60018260000160008373ffffffffffffffffffffffffffffffffffffffff1673ffffffffffffffffffffffffffffffffffffffff16815260200190815260200160002060006101000a81548160ff0219169083151502179055505050565b60008073ffffffffffffffffffffffffffffffffffffffff168273ffffffffffffffffffffffffffffffffffffffff16036101a1576040517f08c379a0000000000000000000000000000000000000000000000000000000008152600401610198906102e7565b60405180910390fd5b8260000160008373ffffffffffffffffffffffffffffffffffffffff1673ffffffffffffffffffffffffffffffffffffffff16815260200190815260200160002060009054906101000a900460ff16905092915050565b600082825260208201905092915050565b7f526f6c65733a206163636f756e7420616c72656164792068617320726f6c6500600082015250565b600061023f601f836101f8565b915061024a82610209565b602082019050919050565b6000602082019050818103600083015261026e81610232565b9050919050565b7f526f6c65733a206163636f756e7420697320746865207a65726f20616464726560008201527f7373000000000000000000000000000000000000000000000000000000000000602082015250565b60006102d16022836101f8565b91506102dc82610275565b604082019050919050565b60006020820190508181036000830152610300816102c4565b9050919050565b610711806103166000396000f3fe608060405234801561001057600080fd5b50600436106100415760003560e01c8063ddf8016614610046578063f552102214610062578063f9b867d814610092575b600080fd5b610060600480360381019061005b9190610445565b61009c565b005b61007c60048036038101906100779190610445565b6100f0565b604051610089919061048d565b60405180910390f35b61009a61010d565b005b6100a5336100f0565b6100e4576040517f08c379a00000000000000000000000000000000000000000000000000000000081526004016100db9061052b565b60405180910390fd5b6100ed816101c0565b50565b600061010682600061021a90919063ffffffff16565b9050919050565b610116336102e1565b565b610122828261021a565b15610162576040517f08c379a000000000000000000000000000000000000000000000000000000000815260040161015990610597565b60405180910390fd5b60018260000160008373ffffffffffffffffffffffffffffffffffffffff1673ffffffffffffffffffffffffffffffffffffffff16815260200190815260200160002060006101000a81548160ff0219169083151502179055505050565b6101d481600061011890919063ffffffff16565b8073ffffffffffffffffffffffffffffffffffffffff167f2977383b0207d39ef14220620b6cf3e6c9b6e78592af90baeef6614ed2fcd2c660405160405180910390a250565b60008073ffffffffffffffffffffffffffffffffffffffff168273ffffffffffffffffffffffffffffffffffffffff160361028a576040517f08c379a000000000000000000000000000000000000000000000000000000000815260040161028190610629565b60405180910390fd5b8260000160008373ffffffffffffffffffffffffffffffffffffffff1673ffffffffffffffffffffffffffffffffffffffff16815260200190815260200160002060009054906101000a900460ff16905092915050565b6102f581600061033b90919063ffffffff16565b8073ffffffffffffffffffffffffffffffffffffffff167fb78e9906c5bae930ccf756a5214c9855b1782f0eb30f9566de2384f034af48f360405160405180910390a250565b610345828261021a565b610384576040517f08c379a000000000000000000000000000000000000000000000000000000000815260040161037b906106bb565b60405180910390fd5b60008260000160008373ffffffffffffffffffffffffffffffffffffffff1673ffffffffffffffffffffffffffffffffffffffff16815260200190815260200160002060006101000a81548160ff0219169083151502179055505050565b600080fd5b600073ffffffffffffffffffffffffffffffffffffffff82169050919050565b6000610412826103e7565b9050919050565b61042281610407565b811461042d57600080fd5b50565b60008135905061043f81610419565b92915050565b60006020828403121561045b5761045a6103e2565b5b600061046984828501610430565b91505092915050565b60008115159050919050565b61048781610472565b82525050565b60006020820190506104a2600083018461047e565b92915050565b600082825260208201905092915050565b7f50726f6475636572526f6c653a2063616c6c657220646f6573206e6f7420686160008201527f7665207468652050726f647563657220726f6c65000000000000000000000000602082015250565b60006105156034836104a8565b9150610520826104b9565b604082019050919050565b6000602082019050818103600083015261054481610508565b9050919050565b7f526f6c65733a206163636f756e7420616c72656164792068617320726f6c6500600082015250565b6000610581601f836104a8565b915061058c8261054b565b602082019050919050565b600060208201905081810360008301526105b081610574565b9050919050565b7f526f6c65733a206163636f756e7420697320746865207a65726f20616464726560008201527f7373000000000000000000000000000000000000000000000000000000000000602082015250565b60006106136022836104a8565b915061061e826105b7565b604082019050919050565b6000602082019050818103600083015261064281610606565b9050919050565b7f526f6c65733a206163636f756e7420646f6573206e6f74206861766520726f6c60008201527f6500000000000000000000000000000000000000000000000000000000000000602082015250565b60006106a56021836104a8565b91506106b082610649565b604082019050919050565b600060208201905081810360008301526106d481610698565b905091905056fea2646970667358221220d8efcd192b2fa7baaa9ad970795ad8500b8e62985e24358e2f60dbf26fbce93564736f6c63430008110033",
  "immutableReferences": {},
  "source": "// SPDX-License-Identifier: MIT\r\n\r\npragma solidity >=0.6.00;\r\n\r\n// Based on openzeppelin-solidity@2.5.0:  openzeppelin-solidity\\contracts\\access\\roles\\CapperRole.sol\r\n\r\nimport \"../Roles.sol\";\r\n\r\ncontract ProducerRole {\r\n    using Roles for Roles.Role;\r\n\r\n    event ProducerAdded(address indexed account);\r\n    event ProducerRemoved(address indexed account);\r\n\r\n    Roles.Role private _Producers;\r\n\r\n    constructor () {\r\n        _addProducer(msg.sender);\r\n    }\r\n\r\n    modifier onlyProducer() {\r\n        require(isProducer(msg.sender), \"ProducerRole: caller does not have the Producer role\");\r\n        _;\r\n    }\r\n\r\n    function isProducer(address account) public view returns (bool) {\r\n        return _Producers.has(account);\r\n    }\r\n\r\n    function addProducer(address account) public onlyProducer {\r\n        _addProducer(account);\r\n    }\r\n\r\n    function renounceProducer() public {\r\n        _removeProducer(msg.sender);\r\n    }\r\n\r\n    function _addProducer(address account) internal {\r\n        _Producers.add(account);\r\n        emit ProducerAdded(account);\r\n    }\r\n\r\n    function _removeProducer(address account) internal {\r\n        _Producers.remove(account);\r\n        emit ProducerRemoved(account);\r\n    }\r\n}",
  "sourcePath": "C:\\Users\\lukas\\Companies\\Mindo.IOT\\Projects\\SUPPLY-CHAIN-FOR-SMEs\\contracts\\access\\roles\\ProducerRole.sol",
  "compiler": {
    "name": "solc",
    "version": "0.8.17+commit.8df45f5f.Emscripten.clang"
  },
  "schemaVersion": "3.4.11",
  "updatedAt": "2022-12-11T06:38:36.943Z",
  "devdoc": {
    "kind": "dev",
    "methods": {},
    "version": 1
  },
  "userdoc": {
    "kind": "user",
    "methods": {},
    "version": 1
  }
}