{
  "contractName": "SupplyChain",
  "abi": [
    {
      "inputs": [],
      "stateMutability": "payable",
      "type": "constructor"
    },
    {
      "anonymous": false,
      "inputs": [
        {
          "indexed": true,
          "internalType": "address",
          "name": "account",
          "type": "address"
        }
      ],
      "name": "ConsumerAdded",
      "type": "event"
    },
    {
      "anonymous": false,
      "inputs": [
        {
          "indexed": true,
          "internalType": "address",
          "name": "account",
          "type": "address"
        }
      ],
      "name": "ConsumerRemoved",
      "type": "event"
    },
    {
      "anonymous": false,
      "inputs": [
        {
          "indexed": false,
          "internalType": "uint256",
          "name": "fabricUpc",
          "type": "uint256"
        },
        {
          "indexed": false,
          "internalType": "uint256",
          "name": "yarnUpc",
          "type": "uint256"
        }
      ],
      "name": "FabricBlended",
      "type": "event"
    },
    {
      "anonymous": false,
      "inputs": [
        {
          "indexed": false,
          "internalType": "uint256",
          "name": "fabricUpc",
          "type": "uint256"
        }
      ],
      "name": "FabricCertified",
      "type": "event"
    },
    {
      "anonymous": false,
      "inputs": [
        {
          "indexed": false,
          "internalType": "uint256",
          "name": "fabricUpc",
          "type": "uint256"
        }
      ],
      "name": "FabricCreated",
      "type": "event"
    },
    {
      "anonymous": false,
      "inputs": [
        {
          "indexed": false,
          "internalType": "uint256",
          "name": "fabricUpc",
          "type": "uint256"
        }
      ],
      "name": "FabricForSale",
      "type": "event"
    },
    {
      "anonymous": false,
      "inputs": [
        {
          "indexed": false,
          "internalType": "uint256",
          "name": "fabricUpc",
          "type": "uint256"
        }
      ],
      "name": "FabricPacked",
      "type": "event"
    },
    {
      "anonymous": false,
      "inputs": [
        {
          "indexed": false,
          "internalType": "uint256",
          "name": "fabricUpc",
          "type": "uint256"
        }
      ],
      "name": "FabricProduced",
      "type": "event"
    },
    {
      "anonymous": false,
      "inputs": [
        {
          "indexed": false,
          "internalType": "uint256",
          "name": "fabricUpc",
          "type": "uint256"
        }
      ],
      "name": "FabricPurchased",
      "type": "event"
    },
    {
      "anonymous": false,
      "inputs": [
        {
          "indexed": true,
          "internalType": "address",
          "name": "account",
          "type": "address"
        }
      ],
      "name": "ProducerAdded",
      "type": "event"
    },
    {
      "anonymous": false,
      "inputs": [
        {
          "indexed": true,
          "internalType": "address",
          "name": "account",
          "type": "address"
        }
      ],
      "name": "ProducerRemoved",
      "type": "event"
    },
    {
      "anonymous": false,
      "inputs": [
        {
          "indexed": true,
          "internalType": "address",
          "name": "account",
          "type": "address"
        }
      ],
      "name": "QualityCheckerAdded",
      "type": "event"
    },
    {
      "anonymous": false,
      "inputs": [
        {
          "indexed": true,
          "internalType": "address",
          "name": "account",
          "type": "address"
        }
      ],
      "name": "QualityCheckerRemoved",
      "type": "event"
    },
    {
      "anonymous": false,
      "inputs": [
        {
          "indexed": true,
          "internalType": "address",
          "name": "account",
          "type": "address"
        }
      ],
      "name": "TextileAdded",
      "type": "event"
    },
    {
      "anonymous": false,
      "inputs": [
        {
          "indexed": true,
          "internalType": "address",
          "name": "account",
          "type": "address"
        }
      ],
      "name": "TextileRemoved",
      "type": "event"
    },
    {
      "anonymous": false,
      "inputs": [
        {
          "indexed": true,
          "internalType": "address",
          "name": "oldOwner",
          "type": "address"
        },
        {
          "indexed": true,
          "internalType": "address",
          "name": "newOwner",
          "type": "address"
        }
      ],
      "name": "TransferOwnership",
      "type": "event"
    },
    {
      "anonymous": false,
      "inputs": [
        {
          "indexed": false,
          "internalType": "uint256",
          "name": "yarnUpc",
          "type": "uint256"
        }
      ],
      "name": "YarnAcquired",
      "type": "event"
    },
    {
      "anonymous": false,
      "inputs": [
        {
          "indexed": false,
          "internalType": "uint256",
          "name": "yarnUpc",
          "type": "uint256"
        }
      ],
      "name": "YarnAudited",
      "type": "event"
    },
    {
      "anonymous": false,
      "inputs": [
        {
          "indexed": false,
          "internalType": "uint256",
          "name": "yarnUpc",
          "type": "uint256"
        }
      ],
      "name": "YarnPlanned",
      "type": "event"
    },
    {
      "anonymous": false,
      "inputs": [
        {
          "indexed": false,
          "internalType": "uint256",
          "name": "yarnUpc",
          "type": "uint256"
        }
      ],
      "name": "YarnProcessed",
      "type": "event"
    },
    {
      "inputs": [
        {
          "internalType": "address",
          "name": "account",
          "type": "address"
        }
      ],
      "name": "addConsumer",
      "outputs": [],
      "stateMutability": "nonpayable",
      "type": "function"
    },
    {
      "inputs": [
        {
          "internalType": "address",
          "name": "account",
          "type": "address"
        }
      ],
      "name": "addProducer",
      "outputs": [],
      "stateMutability": "nonpayable",
      "type": "function"
    },
    {
      "inputs": [
        {
          "internalType": "address",
          "name": "account",
          "type": "address"
        }
      ],
      "name": "addQualityChecker",
      "outputs": [],
      "stateMutability": "nonpayable",
      "type": "function"
    },
    {
      "inputs": [
        {
          "internalType": "address",
          "name": "account",
          "type": "address"
        }
      ],
      "name": "addTextile",
      "outputs": [],
      "stateMutability": "nonpayable",
      "type": "function"
    },
    {
      "inputs": [
        {
          "internalType": "address",
          "name": "account",
          "type": "address"
        }
      ],
      "name": "isConsumer",
      "outputs": [
        {
          "internalType": "bool",
          "name": "",
          "type": "bool"
        }
      ],
      "stateMutability": "view",
      "type": "function"
    },
    {
      "inputs": [],
      "name": "isOwner",
      "outputs": [
        {
          "internalType": "bool",
          "name": "",
          "type": "bool"
        }
      ],
      "stateMutability": "view",
      "type": "function"
    },
    {
      "inputs": [
        {
          "internalType": "address",
          "name": "account",
          "type": "address"
        }
      ],
      "name": "isProducer",
      "outputs": [
        {
          "internalType": "bool",
          "name": "",
          "type": "bool"
        }
      ],
      "stateMutability": "view",
      "type": "function"
    },
    {
      "inputs": [
        {
          "internalType": "address",
          "name": "account",
          "type": "address"
        }
      ],
      "name": "isQualityChecker",
      "outputs": [
        {
          "internalType": "bool",
          "name": "",
          "type": "bool"
        }
      ],
      "stateMutability": "view",
      "type": "function"
    },
    {
      "inputs": [
        {
          "internalType": "address",
          "name": "account",
          "type": "address"
        }
      ],
      "name": "isTextile",
      "outputs": [
        {
          "internalType": "bool",
          "name": "",
          "type": "bool"
        }
      ],
      "stateMutability": "view",
      "type": "function"
    },
    {
      "inputs": [],
      "name": "owner",
      "outputs": [
        {
          "internalType": "address",
          "name": "",
          "type": "address"
        }
      ],
      "stateMutability": "view",
      "type": "function"
    },
    {
      "inputs": [],
      "name": "renounceConsumer",
      "outputs": [],
      "stateMutability": "nonpayable",
      "type": "function"
    },
    {
      "inputs": [],
      "name": "renounceOwnership",
      "outputs": [],
      "stateMutability": "nonpayable",
      "type": "function"
    },
    {
      "inputs": [],
      "name": "renounceProducer",
      "outputs": [],
      "stateMutability": "nonpayable",
      "type": "function"
    },
    {
      "inputs": [],
      "name": "renounceQualityChecker",
      "outputs": [],
      "stateMutability": "nonpayable",
      "type": "function"
    },
    {
      "inputs": [],
      "name": "renounceTextile",
      "outputs": [],
      "stateMutability": "nonpayable",
      "type": "function"
    },
    {
      "inputs": [
        {
          "internalType": "address",
          "name": "newOwner",
          "type": "address"
        }
      ],
      "name": "transferOwnership",
      "outputs": [],
      "stateMutability": "nonpayable",
      "type": "function"
    },
    {
      "inputs": [],
      "name": "kill",
      "outputs": [],
      "stateMutability": "nonpayable",
      "type": "function"
    },
    {
      "inputs": [
        {
          "internalType": "uint256",
          "name": "_yarnUpc",
          "type": "uint256"
        },
        {
          "internalType": "address",
          "name": "_originTextileID",
          "type": "address"
        },
        {
          "internalType": "string",
          "name": "_originTextileName",
          "type": "string"
        },
        {
          "internalType": "string",
          "name": "_originTextileInformation",
          "type": "string"
        },
        {
          "internalType": "string",
          "name": "_originTextileLatitude",
          "type": "string"
        },
        {
          "internalType": "string",
          "name": "_originTextileLongitude",
          "type": "string"
        }
      ],
      "name": "yarnPlannedItem",
      "outputs": [],
      "stateMutability": "nonpayable",
      "type": "function"
    },
    {
      "inputs": [
        {
          "internalType": "uint256",
          "name": "_yarnUpc",
          "type": "uint256"
        },
        {
          "internalType": "string",
          "name": "_acquisitionNotes",
          "type": "string"
        }
      ],
      "name": "yarnAcquisitionItem",
      "outputs": [],
      "stateMutability": "nonpayable",
      "type": "function"
    },
    {
      "inputs": [
        {
          "internalType": "uint256",
          "name": "_yarnUpc",
          "type": "uint256"
        },
        {
          "internalType": "string",
          "name": "_auditNotes",
          "type": "string"
        }
      ],
      "name": "yarnAuditItem",
      "outputs": [],
      "stateMutability": "nonpayable",
      "type": "function"
    },
    {
      "inputs": [
        {
          "internalType": "uint256",
          "name": "_yarnUpc",
          "type": "uint256"
        }
      ],
      "name": "yarnProcessItem",
      "outputs": [],
      "stateMutability": "nonpayable",
      "type": "function"
    },
    {
      "inputs": [
        {
          "internalType": "uint256",
          "name": "_yarnUpc",
          "type": "uint256"
        },
        {
          "internalType": "uint256",
          "name": "_productID",
          "type": "uint256"
        }
      ],
      "name": "fabricCreateItem",
      "outputs": [],
      "stateMutability": "nonpayable",
      "type": "function"
    },
    {
      "inputs": [
        {
          "internalType": "uint256",
          "name": "_fabricUpc",
          "type": "uint256"
        },
        {
          "internalType": "uint256",
          "name": "_yarnUpc",
          "type": "uint256"
        }
      ],
      "name": "fabricBlendItem",
      "outputs": [],
      "stateMutability": "nonpayable",
      "type": "function"
    },
    {
      "inputs": [
        {
          "internalType": "uint256",
          "name": "_fabricUpc",
          "type": "uint256"
        },
        {
          "internalType": "string",
          "name": "_productNotes",
          "type": "string"
        },
        {
          "internalType": "uint256",
          "name": "_productPrice",
          "type": "uint256"
        }
      ],
      "name": "fabricProduceItem",
      "outputs": [],
      "stateMutability": "nonpayable",
      "type": "function"
    },
    {
      "inputs": [
        {
          "internalType": "uint256",
          "name": "_fabricUpc",
          "type": "uint256"
        },
        {
          "internalType": "string",
          "name": "_certifyNotes",
          "type": "string"
        }
      ],
      "name": "fabricCertifyItem",
      "outputs": [],
      "stateMutability": "nonpayable",
      "type": "function"
    },
    {
      "inputs": [
        {
          "internalType": "uint256",
          "name": "_fabricUpc",
          "type": "uint256"
        }
      ],
      "name": "fabricPackItem",
      "outputs": [],
      "stateMutability": "nonpayable",
      "type": "function"
    },
    {
      "inputs": [
        {
          "internalType": "uint256",
          "name": "_fabricUpc",
          "type": "uint256"
        }
      ],
      "name": "fabricSellItem",
      "outputs": [],
      "stateMutability": "nonpayable",
      "type": "function"
    },
    {
      "inputs": [
        {
          "internalType": "uint256",
          "name": "_fabricUpc",
          "type": "uint256"
        }
      ],
      "name": "fabricBuyItem",
      "outputs": [],
      "stateMutability": "payable",
      "type": "function"
    },
    {
      "inputs": [
        {
          "internalType": "uint256",
          "name": "_fabricUpc",
          "type": "uint256"
        }
      ],
      "name": "fetchFabricItemBufferOne",
      "outputs": [
        {
          "internalType": "uint256",
          "name": "sku",
          "type": "uint256"
        },
        {
          "internalType": "uint256",
          "name": "upc",
          "type": "uint256"
        },
        {
          "internalType": "address",
          "name": "ownerID",
          "type": "address"
        },
        {
          "internalType": "uint256",
          "name": "productID",
          "type": "uint256"
        },
        {
          "internalType": "string",
          "name": "productNotes",
          "type": "string"
        },
        {
          "internalType": "uint256",
          "name": "productPrice",
          "type": "uint256"
        },
        {
          "internalType": "address",
          "name": "producerID",
          "type": "address"
        },
        {
          "internalType": "address",
          "name": "consumerID",
          "type": "address"
        },
        {
          "internalType": "string",
          "name": "certifyNotes",
          "type": "string"
        },
        {
          "internalType": "uint256[]",
          "name": "yarns",
          "type": "uint256[]"
        },
        {
          "internalType": "uint256",
          "name": "itemState",
          "type": "uint256"
        }
      ],
      "stateMutability": "view",
      "type": "function"
    },
    {
      "inputs": [
        {
          "internalType": "uint256",
          "name": "_yarnUpc",
          "type": "uint256"
        }
      ],
      "name": "fetchYarnItemBufferOne",
      "outputs": [
        {
          "internalType": "uint256",
          "name": "sku",
          "type": "uint256"
        },
        {
          "internalType": "uint256",
          "name": "upc",
          "type": "uint256"
        },
        {
          "internalType": "address",
          "name": "ownerID",
          "type": "address"
        },
        {
          "internalType": "address",
          "name": "originTextileID",
          "type": "address"
        },
        {
          "internalType": "string",
          "name": "originTextileName",
          "type": "string"
        },
        {
          "internalType": "string",
          "name": "originTextileInformation",
          "type": "string"
        },
        {
          "internalType": "string",
          "name": "originTextileLatitude",
          "type": "string"
        },
        {
          "internalType": "string",
          "name": "originTextileLongitude",
          "type": "string"
        }
      ],
      "stateMutability": "view",
      "type": "function"
    },
    {
      "inputs": [
        {
          "internalType": "uint256",
          "name": "_yarnUpc",
          "type": "uint256"
        }
      ],
      "name": "fetchYarnItemBufferTwo",
      "outputs": [
        {
          "internalType": "string",
          "name": "acquisitionNotes",
          "type": "string"
        },
        {
          "internalType": "string",
          "name": "auditNotes",
          "type": "string"
        },
        {
          "internalType": "uint256",
          "name": "itemState",
          "type": "uint256"
        }
      ],
      "stateMutability": "view",
      "type": "function"
    }
  ],
  "bytecode": "0x6080604052336000806101000a81548173ffffffffffffffffffffffffffffffffffffffff021916908373ffffffffffffffffffffffffffffffffffffffff16021790555060008054906101000a900473ffffffffffffffffffffffffffffffffffffffff1673ffffffffffffffffffffffffffffffffffffffff16600073ffffffffffffffffffffffffffffffffffffffff167f5c486528ec3e3f0ea91181cff8116f02bfa350e03b8b6f12e00765adbb5af85c60405160405180910390a3620000d0336200011160201b60201c565b620000e1336200017260201b60201c565b620000f233620001d360201b60201c565b62000103336200023460201b60201c565b60016005819055506200052d565b6200012c8160016200029560201b620027e81790919060201c565b8073ffffffffffffffffffffffffffffffffffffffff167f91bd74a5750e2b032dbc417f52481640b6b6fd8023f1b490d7155fbac0eace5360405160405180910390a250565b6200018d8160026200029560201b620027e81790919060201c565b8073ffffffffffffffffffffffffffffffffffffffff167f104cb9a9f6f722e54611e72d090b68cdaf67ecd247d1783a16b4bb7c9f45236560405160405180910390a250565b620001ee8160036200029560201b620027e81790919060201c565b8073ffffffffffffffffffffffffffffffffffffffff167f28b26e7a3d20aedbc5f8f2ebf7da671c0491723a2b78f47a097b0e46dee0714260405160405180910390a250565b6200024f8160046200029560201b620027e81790919060201c565b8073ffffffffffffffffffffffffffffffffffffffff167f2977383b0207d39ef14220620b6cf3e6c9b6e78592af90baeef6614ed2fcd2c660405160405180910390a250565b620002a782826200034860201b60201c565b15620002ea576040517f08c379a0000000000000000000000000000000000000000000000000000000008152600401620002e19062000473565b60405180910390fd5b60018260000160008373ffffffffffffffffffffffffffffffffffffffff1673ffffffffffffffffffffffffffffffffffffffff16815260200190815260200160002060006101000a81548160ff0219169083151502179055505050565b60008073ffffffffffffffffffffffffffffffffffffffff168273ffffffffffffffffffffffffffffffffffffffff1603620003bb576040517f08c379a0000000000000000000000000000000000000000000000000000000008152600401620003b2906200050b565b60405180910390fd5b8260000160008373ffffffffffffffffffffffffffffffffffffffff1673ffffffffffffffffffffffffffffffffffffffff16815260200190815260200160002060009054906101000a900460ff16905092915050565b600082825260208201905092915050565b7f526f6c65733a206163636f756e7420616c72656164792068617320726f6c6500600082015250565b60006200045b601f8362000412565b9150620004688262000423565b602082019050919050565b600060208201905081810360008301526200048e816200044c565b9050919050565b7f526f6c65733a206163636f756e7420697320746865207a65726f20616464726560008201527f7373000000000000000000000000000000000000000000000000000000000000602082015250565b6000620004f360228362000412565b9150620005008262000495565b604082019050919050565b600060208201905081810360008301526200052681620004e4565b9050919050565b614107806200053d6000396000f3fe6080604052600436106101d85760003560e01c806384e5d32111610102578063d33a088111610095578063f532c1ac11610064578063f532c1ac14610654578063f552102214610693578063f9b867d8146106d0578063fa7159b6146106e7576101d8565b8063d33a08811461059f578063d6600248146105e6578063ddf8016614610602578063f2fde38b1461062b576101d8565b8063a64290c4116100d1578063a64290c4146104fb578063b433f1fb14610524578063b6a191f01461054d578063c029800914610576576101d8565b806384e5d3211461043f5780638da5cb5b1461047c5780638f32d59b146104a7578063a5fff107146104d2576101d8565b80634c8885971161017a578063715018a611610149578063715018a6146103855780638200ae151461039c5780638272ef01146103d9578063834ff73914610402576101d8565b80634c888597146103055780635001a0031461032e57806361e6982d146103455780636c22e00a1461035c576101d8565b806335bb0579116101b657806335bb0579146102585780633ce302cc1461028157806341c0e1b5146102aa5780634488d9b9146102c1576101d8565b8063112940f9146101dd5780631cc78e3f146102065780633291f3101461022f575b600080fd5b3480156101e957600080fd5b5061020460048036038101906101ff9190612e2c565b6106fe565b005b34801561021257600080fd5b5061022d60048036038101906102289190612e8f565b610752565b005b34801561023b57600080fd5b5061025660048036038101906102519190612f34565b61094b565b005b34801561026457600080fd5b5061027f600480360381019061027a9190613044565b610ba4565b005b34801561028d57600080fd5b506102a860048036038101906102a39190612e2c565b610d97565b005b3480156102b657600080fd5b506102bf610deb565b005b3480156102cd57600080fd5b506102e860048036038101906102e39190613044565b610e1c565b6040516102fc98979695949392919061311f565b60405180910390f35b34801561031157600080fd5b5061032c600480360381019061032791906131b9565b61115b565b005b34801561033a57600080fd5b50610343611325565b005b34801561035157600080fd5b5061035a611330565b005b34801561036857600080fd5b50610383600480360381019061037e9190612e2c565b61133b565b005b34801561039157600080fd5b5061039a61138f565b005b3480156103a857600080fd5b506103c360048036038101906103be9190612e2c565b61145e565b6040516103d09190613234565b60405180910390f35b3480156103e557600080fd5b5061040060048036038101906103fb9190613044565b61147b565b005b34801561040e57600080fd5b5061042960048036038101906104249190612e2c565b6115c8565b6040516104369190613234565b60405180910390f35b34801561044b57600080fd5b5061046660048036038101906104619190612e2c565b6115e5565b6040516104739190613234565b60405180910390f35b34801561048857600080fd5b50610491611602565b60405161049e919061324f565b60405180910390f35b3480156104b357600080fd5b506104bc61162b565b6040516104c99190613234565b60405180910390f35b3480156104de57600080fd5b506104f960048036038101906104f49190612e8f565b611682565b005b34801561050757600080fd5b50610522600480360381019061051d91906131b9565b611801565b005b34801561053057600080fd5b5061054b60048036038101906105469190613044565b611976565b005b34801561055957600080fd5b50610574600480360381019061056f91906131b9565b611b18565b005b34801561058257600080fd5b5061059d6004803603810190610598919061326a565b611c8d565b005b3480156105ab57600080fd5b506105c660048036038101906105c19190613044565b611f19565b6040516105dd9b9a9998979695949392919061339c565b60405180910390f35b61060060048036038101906105fb9190613044565b612227565b005b34801561060e57600080fd5b5061062960048036038101906106249190612e2c565b6125be565b005b34801561063757600080fd5b50610652600480360381019061064d9190612e2c565b612612565b005b34801561066057600080fd5b5061067b60048036038101906106769190613044565b61262f565b60405161068a9392919061345c565b60405180910390f35b34801561069f57600080fd5b506106ba60048036038101906106b59190612e2c565b6127b5565b6040516106c79190613234565b60405180910390f35b3480156106dc57600080fd5b506106e56127d2565b005b3480156106f357600080fd5b506106fc6127dd565b005b610707336115c8565b610746576040517f08c379a000000000000000000000000000000000000000000000000000000000815260040161073d90613513565b60405180910390fd5b61074f81612890565b50565b61075b336127b5565b61079a576040517f08c379a0000000000000000000000000000000000000000000000000000000008152600401610791906135a5565b60405180910390fd5b6007600083815260200190815260200160002060020160009054906101000a900473ffffffffffffffffffffffffffffffffffffffff168073ffffffffffffffffffffffffffffffffffffffff163373ffffffffffffffffffffffffffffffffffffffff161461083f576040517f08c379a000000000000000000000000000000000000000000000000000000000815260040161083690613611565b60405180910390fd5b336006600085815260200190815260200160002060020160006101000a81548173ffffffffffffffffffffffffffffffffffffffff021916908373ffffffffffffffffffffffffffffffffffffffff1602179055506008600084815260200190815260200160002082908060018154018082558091505060019003906000526020600020016000909190919091505560016007600085815260200190815260200160002060090160006101000a81548160ff0219169083600681111561090857610907613631565b5b02179055507f7e7c44ba2d30ca43df5624c9be813012fdd2f2ffff6a447c77b67bd1cf810f5e838360405161093e929190613660565b60405180910390a1505050565b6109543361145e565b610993576040517f08c379a000000000000000000000000000000000000000000000000000000000815260040161098a906136fb565b60405180910390fd5b600554600660008c81526020019081526020016000206000018190555089600660008c81526020019081526020016000206001018190555033600660008c815260200190815260200160002060020160006101000a81548173ffffffffffffffffffffffffffffffffffffffff021916908373ffffffffffffffffffffffffffffffffffffffff16021790555088600660008c815260200190815260200160002060030160006101000a81548173ffffffffffffffffffffffffffffffffffffffff021916908373ffffffffffffffffffffffffffffffffffffffff1602179055508787600660008d81526020019081526020016000206004019182610a9a929190613961565b508585600660008d81526020019081526020016000206005019182610ac0929190613961565b508383600660008d81526020019081526020016000206006019182610ae6929190613961565b508181600660008d81526020019081526020016000206007019182610b0c929190613961565b506000600660008c8152602001908152602001600020600a0160006101000a81548160ff02191690836003811115610b4757610b46613631565b5b02179055506001600554610b5b9190613a60565b6005819055507fe04d4b2676cd5be8e47683476f4255fba51aba2e3f0330bff95f1bc6bc6286d48a604051610b909190613a94565b60405180910390a150505050505050505050565b610bad336127b5565b610bec576040517f08c379a0000000000000000000000000000000000000000000000000000000008152600401610be3906135a5565b60405180910390fd5b6006600082815260200190815260200160002060020160009054906101000a900473ffffffffffffffffffffffffffffffffffffffff168073ffffffffffffffffffffffffffffffffffffffff163373ffffffffffffffffffffffffffffffffffffffff1614610c91576040517f08c379a0000000000000000000000000000000000000000000000000000000008152600401610c8890613611565b60405180910390fd5b8160036006811115610ca657610ca5613631565b5b6007600083815260200190815260200160002060090160009054906101000a900460ff166006811115610cdc57610cdb613631565b5b14610d1c576040517f08c379a0000000000000000000000000000000000000000000000000000000008152600401610d1390613afb565b60405180910390fd5b60046007600085815260200190815260200160002060090160006101000a81548160ff02191690836006811115610d5657610d55613631565b5b02179055507f116a8b8c0318b8ecaa737ee6d2378324b6dae44196c7ea51cf19b60da52f871383604051610d8a9190613a94565b60405180910390a1505050565b610da0336115e5565b610ddf576040517f08c379a0000000000000000000000000000000000000000000000000000000008152600401610dd690613b8d565b60405180910390fd5b610de8816128ea565b50565b610df361162b565b610dfc57600080fd5b610e04611602565b73ffffffffffffffffffffffffffffffffffffffff16ff5b600080600080606080606080600660008a8152602001908152602001600020600001549750600660008a8152602001908152602001600020600101549650600660008a815260200190815260200160002060020160009054906101000a900473ffffffffffffffffffffffffffffffffffffffff169550600660008a815260200190815260200160002060030160009054906101000a900473ffffffffffffffffffffffffffffffffffffffff169450600660008a81526020019081526020016000206004018054610eed90613784565b80601f0160208091040260200160405190810160405280929190818152602001828054610f1990613784565b8015610f665780601f10610f3b57610100808354040283529160200191610f66565b820191906000526020600020905b815481529060010190602001808311610f4957829003601f168201915b50505050509350600660008a81526020019081526020016000206005018054610f8e90613784565b80601f0160208091040260200160405190810160405280929190818152602001828054610fba90613784565b80156110075780601f10610fdc57610100808354040283529160200191611007565b820191906000526020600020905b815481529060010190602001808311610fea57829003601f168201915b50505050509250600660008a8152602001908152602001600020600601805461102f90613784565b80601f016020809104026020016040519081016040528092919081815260200182805461105b90613784565b80156110a85780601f1061107d576101008083540402835291602001916110a8565b820191906000526020600020905b81548152906001019060200180831161108b57829003601f168201915b50505050509150600660008a815260200190815260200160002060070180546110d090613784565b80601f01602080910402602001604051908101604052809291908181526020018280546110fc90613784565b80156111495780601f1061111e57610100808354040283529160200191611149565b820191906000526020600020905b81548152906001019060200180831161112c57829003601f168201915b50505050509050919395975091939597565b6111643361145e565b6111a3576040517f08c379a000000000000000000000000000000000000000000000000000000000815260040161119a906136fb565b60405180910390fd5b82600060038111156111b8576111b7613631565b5b60066000838152602001908152602001600020600a0160009054906101000a900460ff1660038111156111ee576111ed613631565b5b1461122e576040517f08c379a000000000000000000000000000000000000000000000000000000000815260040161122590613bf9565b60405180910390fd5b336006600086815260200190815260200160002060020160006101000a81548173ffffffffffffffffffffffffffffffffffffffff021916908373ffffffffffffffffffffffffffffffffffffffff16021790555082826006600087815260200190815260200160002060080191826112a8929190613961565b50600160066000868152602001908152602001600020600a0160006101000a81548160ff021916908360038111156112e3576112e2613631565b5b02179055507f5a425e43ecd7bf903efe18d0e59b576743dece7bd74d8eaad9330900ee769586846040516113179190613a94565b60405180910390a150505050565b61132e33612944565b565b6113393361299e565b565b6113443361145e565b611383576040517f08c379a000000000000000000000000000000000000000000000000000000000815260040161137a906136fb565b60405180910390fd5b61138c816129f8565b50565b61139761162b565b6113a057600080fd5b600073ffffffffffffffffffffffffffffffffffffffff1660008054906101000a900473ffffffffffffffffffffffffffffffffffffffff1673ffffffffffffffffffffffffffffffffffffffff167f5c486528ec3e3f0ea91181cff8116f02bfa350e03b8b6f12e00765adbb5af85c60405160405180910390a360008060006101000a81548173ffffffffffffffffffffffffffffffffffffffff021916908373ffffffffffffffffffffffffffffffffffffffff160217905550565b6000611474826001612a5290919063ffffffff16565b9050919050565b6114843361145e565b6114c3576040517f08c379a00000000000000000000000000000000000000000000000000000000081526004016114ba906136fb565b60405180910390fd5b80600260038111156114d8576114d7613631565b5b60066000838152602001908152602001600020600a0160009054906101000a900460ff16600381111561150e5761150d613631565b5b1461154e576040517f08c379a000000000000000000000000000000000000000000000000000000000815260040161154590613c65565b60405180910390fd5b600360066000848152602001908152602001600020600a0160006101000a81548160ff0219169083600381111561158857611587613631565b5b02179055507f5dadecfe300742528ad6ba620e50f2dfeac7a76c907a59e2976cd7ab99d347aa826040516115bc9190613a94565b60405180910390a15050565b60006115de826003612a5290919063ffffffff16565b9050919050565b60006115fb826002612a5290919063ffffffff16565b9050919050565b60008060009054906101000a900473ffffffffffffffffffffffffffffffffffffffff16905090565b60008060009054906101000a900473ffffffffffffffffffffffffffffffffffffffff1673ffffffffffffffffffffffffffffffffffffffff163373ffffffffffffffffffffffffffffffffffffffff1614905090565b61168b336127b5565b6116ca576040517f08c379a00000000000000000000000000000000000000000000000000000000081526004016116c1906135a5565b60405180910390fd5b6005546007600084815260200190815260200160002060000181905550816007600084815260200190815260200160002060010181905550806007600084815260200190815260200160002060030181905550336007600084815260200190815260200160002060020160006101000a81548173ffffffffffffffffffffffffffffffffffffffff021916908373ffffffffffffffffffffffffffffffffffffffff16021790555060006007600084815260200190815260200160002060090160006101000a81548160ff021916908360068111156117ac576117ab613631565b5b021790555060016005546117c09190613a60565b6005819055507f5bb87b8281c5b142229d7cec8aa7c498de30441c986b91d72e830499ccf7408e826040516117f59190613a94565b60405180910390a15050565b61180a336115e5565b611849576040517f08c379a000000000000000000000000000000000000000000000000000000000815260040161184090613b8d565b60405180910390fd5b826001600381111561185e5761185d613631565b5b60066000838152602001908152602001600020600a0160009054906101000a900460ff16600381111561189457611893613631565b5b146118d4576040517f08c379a00000000000000000000000000000000000000000000000000000000081526004016118cb90613cd1565b60405180910390fd5b82826006600087815260200190815260200160002060090191826118f9929190613961565b50600260066000868152602001908152602001600020600a0160006101000a81548160ff0219169083600381111561193457611933613631565b5b02179055507fc8ff0601d9bf422e842190947a20f16a133e53a10f186577dbdc55a1ba84a3ac846040516119689190613a94565b60405180910390a150505050565b61197f336115c8565b6119be576040517f08c379a00000000000000000000000000000000000000000000000000000000081526004016119b590613513565b60405180910390fd5b80600460068111156119d3576119d2613631565b5b6007600083815260200190815260200160002060090160009054906101000a900460ff166006811115611a0957611a08613631565b5b14611a49576040517f08c379a0000000000000000000000000000000000000000000000000000000008152600401611a4090613d3d565b60405180910390fd5b336007600084815260200190815260200160002060070160006101000a81548173ffffffffffffffffffffffffffffffffffffffff021916908373ffffffffffffffffffffffffffffffffffffffff16021790555060056007600084815260200190815260200160002060090160006101000a81548160ff02191690836006811115611ad857611ad7613631565b5b02179055507feec09419d01dc721d7187b0fb597b00b17cdafa2cf4d82168323edfe5855506482604051611b0c9190613a94565b60405180910390a15050565b611b21336115e5565b611b60576040517f08c379a0000000000000000000000000000000000000000000000000000000008152600401611b5790613b8d565b60405180910390fd5b8260026006811115611b7557611b74613631565b5b6007600083815260200190815260200160002060090160009054906101000a900460ff166006811115611bab57611baa613631565b5b14611beb576040517f08c379a0000000000000000000000000000000000000000000000000000000008152600401611be290613da9565b60405180910390fd5b8282600760008781526020019081526020016000206008019182611c10929190613961565b5060036007600086815260200190815260200160002060090160006101000a81548160ff02191690836006811115611c4b57611c4a613631565b5b02179055507f91212e5a9ab5b82d23965d73410de550dd286cf473f8759b66e9044c259b944c84604051611c7f9190613a94565b60405180910390a150505050565b611c96336127b5565b611cd5576040517f08c379a0000000000000000000000000000000000000000000000000000000008152600401611ccc906135a5565b60405180910390fd5b6007600085815260200190815260200160002060020160009054906101000a900473ffffffffffffffffffffffffffffffffffffffff168073ffffffffffffffffffffffffffffffffffffffff163373ffffffffffffffffffffffffffffffffffffffff1614611d7a576040517f08c379a0000000000000000000000000000000000000000000000000000000008152600401611d7190613611565b60405180910390fd5b8460016006811115611d8f57611d8e613631565b5b6007600083815260200190815260200160002060090160009054906101000a900460ff166006811115611dc557611dc4613631565b5b14611e05576040517f08c379a0000000000000000000000000000000000000000000000000000000008152600401611dfc90613e15565b60405180910390fd5b336007600088815260200190815260200160002060060160006101000a81548173ffffffffffffffffffffffffffffffffffffffff021916908373ffffffffffffffffffffffffffffffffffffffff1602179055508484600760008981526020019081526020016000206004019182611e7f929190613961565b5082600760008881526020019081526020016000206005018190555060026007600088815260200190815260200160002060090160006101000a81548160ff02191690836006811115611ed557611ed4613631565b5b02179055507fcd68d5707d683489ef8ad50f9add5fffc31ae1be269975780330348baf1b85a586604051611f099190613a94565b60405180910390a1505050505050565b600080600080606060008060006060806000600760008d8152602001908152602001600020600001549a50600760008d8152602001908152602001600020600101549950600760008d815260200190815260200160002060020160009054906101000a900473ffffffffffffffffffffffffffffffffffffffff169850600760008d8152602001908152602001600020600301549750600760008d81526020019081526020016000206004018054611fd090613784565b80601f0160208091040260200160405190810160405280929190818152602001828054611ffc90613784565b80156120495780601f1061201e57610100808354040283529160200191612049565b820191906000526020600020905b81548152906001019060200180831161202c57829003601f168201915b50505050509650600760008d8152602001908152602001600020600501549550600760008d815260200190815260200160002060060160009054906101000a900473ffffffffffffffffffffffffffffffffffffffff169450600760008d815260200190815260200160002060070160009054906101000a900473ffffffffffffffffffffffffffffffffffffffff169350600760008d815260200190815260200160002060080180546120fc90613784565b80601f016020809104026020016040519081016040528092919081815260200182805461212890613784565b80156121755780601f1061214a57610100808354040283529160200191612175565b820191906000526020600020905b81548152906001019060200180831161215857829003601f168201915b50505050509250600860008d81526020019081526020016000208054806020026020016040519081016040528092919081815260200182805480156121d957602002820191906000526020600020905b8154815260200190600101908083116121c5575b50505050509150600760008d815260200190815260200160002060090160009054906101000a900460ff16600681111561221657612215613631565b5b905091939597999b90929496989a50565b612230336115c8565b61226f576040517f08c379a000000000000000000000000000000000000000000000000000000000815260040161226690613513565b60405180910390fd5b806005600681111561228457612283613631565b5b6007600083815260200190815260200160002060090160009054906101000a900460ff1660068111156122ba576122b9613631565b5b146122fa576040517f08c379a00000000000000000000000000000000000000000000000000000000081526004016122f190613e81565b60405180910390fd5b600760008381526020019081526020016000206005015480341015612354576040517f08c379a000000000000000000000000000000000000000000000000000000000815260040161234b90613eed565b60405180910390fd5b82336007600086815260200190815260200160002060020160006101000a81548173ffffffffffffffffffffffffffffffffffffffff021916908373ffffffffffffffffffffffffffffffffffffffff160217905550336007600086815260200190815260200160002060070160006101000a81548173ffffffffffffffffffffffffffffffffffffffff021916908373ffffffffffffffffffffffffffffffffffffffff16021790555060066007600086815260200190815260200160002060090160006101000a81548160ff0219169083600681111561243957612438613631565b5b02179055506000600760008681526020019081526020016000206005015490506007600086815260200190815260200160002060060160009054906101000a900473ffffffffffffffffffffffffffffffffffffffff1673ffffffffffffffffffffffffffffffffffffffff166108fc829081150290604051600060405180830381858888f193505050501580156124d5573d6000803e3d6000fd5b507f6234d877d185ebe1d8af498ea9cdf120897190a607b9428f5626406d957bb40e856040516125059190613a94565b60405180910390a150600060076000838152602001908152602001600020600501549050600081346125379190613f0d565b90506007600084815260200190815260200160002060070160009054906101000a900473ffffffffffffffffffffffffffffffffffffffff1673ffffffffffffffffffffffffffffffffffffffff166108fc829081150290604051600060405180830381858888f193505050501580156125b5573d6000803e3d6000fd5b50505050505050565b6125c7336127b5565b612606576040517f08c379a00000000000000000000000000000000000000000000000000000000081526004016125fd906135a5565b60405180910390fd5b61260f81612b19565b50565b61261a61162b565b61262357600080fd5b61262c81612b73565b50565b606080600060066000858152602001908152602001600020600801805461265590613784565b80601f016020809104026020016040519081016040528092919081815260200182805461268190613784565b80156126ce5780601f106126a3576101008083540402835291602001916126ce565b820191906000526020600020905b8154815290600101906020018083116126b157829003601f168201915b505050505092506006600085815260200190815260200160002060090180546126f690613784565b80601f016020809104026020016040519081016040528092919081815260200182805461272290613784565b801561276f5780601f106127445761010080835404028352916020019161276f565b820191906000526020600020905b81548152906001019060200180831161275257829003601f168201915b5050505050915060066000858152602001908152602001600020600a0160009054906101000a900460ff1660038111156127ac576127ab613631565b5b90509193909250565b60006127cb826004612a5290919063ffffffff16565b9050919050565b6127db33612c69565b565b6127e633612cc3565b565b6127f28282612a52565b15612832576040517f08c379a000000000000000000000000000000000000000000000000000000000815260040161282990613f8d565b60405180910390fd5b60018260000160008373ffffffffffffffffffffffffffffffffffffffff1673ffffffffffffffffffffffffffffffffffffffff16815260200190815260200160002060006101000a81548160ff0219169083151502179055505050565b6128a48160036127e890919063ffffffff16565b8073ffffffffffffffffffffffffffffffffffffffff167f28b26e7a3d20aedbc5f8f2ebf7da671c0491723a2b78f47a097b0e46dee0714260405160405180910390a250565b6128fe8160026127e890919063ffffffff16565b8073ffffffffffffffffffffffffffffffffffffffff167f104cb9a9f6f722e54611e72d090b68cdaf67ecd247d1783a16b4bb7c9f45236560405160405180910390a250565b612958816002612d1d90919063ffffffff16565b8073ffffffffffffffffffffffffffffffffffffffff167fe76857ca9efe947ad3584ceafefd803d8386c1972d41081ad92be63b87b7679360405160405180910390a250565b6129b2816003612d1d90919063ffffffff16565b8073ffffffffffffffffffffffffffffffffffffffff167fe3f5ed5f263f1f01764a96edfc7d025f511ec5f7d180e8816908b78bcf74f09860405160405180910390a250565b612a0c8160016127e890919063ffffffff16565b8073ffffffffffffffffffffffffffffffffffffffff167f91bd74a5750e2b032dbc417f52481640b6b6fd8023f1b490d7155fbac0eace5360405160405180910390a250565b60008073ffffffffffffffffffffffffffffffffffffffff168273ffffffffffffffffffffffffffffffffffffffff1603612ac2576040517f08c379a0000000000000000000000000000000000000000000000000000000008152600401612ab99061401f565b60405180910390fd5b8260000160008373ffffffffffffffffffffffffffffffffffffffff1673ffffffffffffffffffffffffffffffffffffffff16815260200190815260200160002060009054906101000a900460ff16905092915050565b612b2d8160046127e890919063ffffffff16565b8073ffffffffffffffffffffffffffffffffffffffff167f2977383b0207d39ef14220620b6cf3e6c9b6e78592af90baeef6614ed2fcd2c660405160405180910390a250565b600073ffffffffffffffffffffffffffffffffffffffff168173ffffffffffffffffffffffffffffffffffffffff1603612bac57600080fd5b8073ffffffffffffffffffffffffffffffffffffffff1660008054906101000a900473ffffffffffffffffffffffffffffffffffffffff1673ffffffffffffffffffffffffffffffffffffffff167f5c486528ec3e3f0ea91181cff8116f02bfa350e03b8b6f12e00765adbb5af85c60405160405180910390a3806000806101000a81548173ffffffffffffffffffffffffffffffffffffffff021916908373ffffffffffffffffffffffffffffffffffffffff16021790555050565b612c7d816004612d1d90919063ffffffff16565b8073ffffffffffffffffffffffffffffffffffffffff167fb78e9906c5bae930ccf756a5214c9855b1782f0eb30f9566de2384f034af48f360405160405180910390a250565b612cd7816001612d1d90919063ffffffff16565b8073ffffffffffffffffffffffffffffffffffffffff167f3060a59d3d7b394091b189b4cc07a55e9f83ffa4d62f998ae07defa32714d5fa60405160405180910390a250565b612d278282612a52565b612d66576040517f08c379a0000000000000000000000000000000000000000000000000000000008152600401612d5d906140b1565b60405180910390fd5b60008260000160008373ffffffffffffffffffffffffffffffffffffffff1673ffffffffffffffffffffffffffffffffffffffff16815260200190815260200160002060006101000a81548160ff0219169083151502179055505050565b600080fd5b600080fd5b600073ffffffffffffffffffffffffffffffffffffffff82169050919050565b6000612df982612dce565b9050919050565b612e0981612dee565b8114612e1457600080fd5b50565b600081359050612e2681612e00565b92915050565b600060208284031215612e4257612e41612dc4565b5b6000612e5084828501612e17565b91505092915050565b6000819050919050565b612e6c81612e59565b8114612e7757600080fd5b50565b600081359050612e8981612e63565b92915050565b60008060408385031215612ea657612ea5612dc4565b5b6000612eb485828601612e7a565b9250506020612ec585828601612e7a565b9150509250929050565b600080fd5b600080fd5b600080fd5b60008083601f840112612ef457612ef3612ecf565b5b8235905067ffffffffffffffff811115612f1157612f10612ed4565b5b602083019150836001820283011115612f2d57612f2c612ed9565b5b9250929050565b60008060008060008060008060008060c08b8d031215612f5757612f56612dc4565b5b6000612f658d828e01612e7a565b9a50506020612f768d828e01612e17565b99505060408b013567ffffffffffffffff811115612f9757612f96612dc9565b5b612fa38d828e01612ede565b985098505060608b013567ffffffffffffffff811115612fc657612fc5612dc9565b5b612fd28d828e01612ede565b965096505060808b013567ffffffffffffffff811115612ff557612ff4612dc9565b5b6130018d828e01612ede565b945094505060a08b013567ffffffffffffffff81111561302457613023612dc9565b5b6130308d828e01612ede565b92509250509295989b9194979a5092959850565b60006020828403121561305a57613059612dc4565b5b600061306884828501612e7a565b91505092915050565b61307a81612e59565b82525050565b61308981612dee565b82525050565b600081519050919050565b600082825260208201905092915050565b60005b838110156130c95780820151818401526020810190506130ae565b60008484015250505050565b6000601f19601f8301169050919050565b60006130f18261308f565b6130fb818561309a565b935061310b8185602086016130ab565b613114816130d5565b840191505092915050565b600061010082019050613135600083018b613071565b613142602083018a613071565b61314f6040830189613080565b61315c6060830188613080565b818103608083015261316e81876130e6565b905081810360a083015261318281866130e6565b905081810360c083015261319681856130e6565b905081810360e08301526131aa81846130e6565b90509998505050505050505050565b6000806000604084860312156131d2576131d1612dc4565b5b60006131e086828701612e7a565b935050602084013567ffffffffffffffff81111561320157613200612dc9565b5b61320d86828701612ede565b92509250509250925092565b60008115159050919050565b61322e81613219565b82525050565b60006020820190506132496000830184613225565b92915050565b60006020820190506132646000830184613080565b92915050565b6000806000806060858703121561328457613283612dc4565b5b600061329287828801612e7a565b945050602085013567ffffffffffffffff8111156132b3576132b2612dc9565b5b6132bf87828801612ede565b935093505060406132d287828801612e7a565b91505092959194509250565b600081519050919050565b600082825260208201905092915050565b6000819050602082019050919050565b61331381612e59565b82525050565b6000613325838361330a565b60208301905092915050565b6000602082019050919050565b6000613349826132de565b61335381856132e9565b935061335e836132fa565b8060005b8381101561338f5781516133768882613319565b975061338183613331565b925050600181019050613362565b5085935050505092915050565b6000610160820190506133b2600083018e613071565b6133bf602083018d613071565b6133cc604083018c613080565b6133d9606083018b613071565b81810360808301526133eb818a6130e6565b90506133fa60a0830189613071565b61340760c0830188613080565b61341460e0830187613080565b81810361010083015261342781866130e6565b905081810361012083015261343c818561333e565b905061344c610140830184613071565b9c9b505050505050505050505050565b6000606082019050818103600083015261347681866130e6565b9050818103602083015261348a81856130e6565b90506134996040830184613071565b949350505050565b7f436f6e73756d6572526f6c653a2063616c6c657220646f6573206e6f7420686160008201527f76652074686520436f6e73756d657220726f6c65000000000000000000000000602082015250565b60006134fd60348361309a565b9150613508826134a1565b604082019050919050565b6000602082019050818103600083015261352c816134f0565b9050919050565b7f50726f6475636572526f6c653a2063616c6c657220646f6573206e6f7420686160008201527f7665207468652050726f647563657220726f6c65000000000000000000000000602082015250565b600061358f60348361309a565b915061359a82613533565b604082019050919050565b600060208201905081810360008301526135be81613582565b9050919050565b7f76657269667943616c6c65723a20756e65787065637465642063616c6c657200600082015250565b60006135fb601f8361309a565b9150613606826135c5565b602082019050919050565b6000602082019050818103600083015261362a816135ee565b9050919050565b7f4e487b7100000000000000000000000000000000000000000000000000000000600052602160045260246000fd5b60006040820190506136756000830185613071565b6136826020830184613071565b9392505050565b7f54657874696c65526f6c653a2063616c6c657220646f6573206e6f742068617660008201527f65207468652054657874696c6520726f6c650000000000000000000000000000602082015250565b60006136e560328361309a565b91506136f082613689565b604082019050919050565b60006020820190508181036000830152613714816136d8565b9050919050565b600082905092915050565b7f4e487b7100000000000000000000000000000000000000000000000000000000600052604160045260246000fd5b7f4e487b7100000000000000000000000000000000000000000000000000000000600052602260045260246000fd5b6000600282049050600182168061379c57607f821691505b6020821081036137af576137ae613755565b5b50919050565b60008190508160005260206000209050919050565b60006020601f8301049050919050565b600082821b905092915050565b6000600883026138177fffffffffffffffffffffffffffffffffffffffffffffffffffffffffffffffff826137da565b61382186836137da565b95508019841693508086168417925050509392505050565b6000819050919050565b600061385e61385961385484612e59565b613839565b612e59565b9050919050565b6000819050919050565b61387883613843565b61388c61388482613865565b8484546137e7565b825550505050565b600090565b6138a1613894565b6138ac81848461386f565b505050565b5b818110156138d0576138c5600082613899565b6001810190506138b2565b5050565b601f821115613915576138e6816137b5565b6138ef846137ca565b810160208510156138fe578190505b61391261390a856137ca565b8301826138b1565b50505b505050565b600082821c905092915050565b60006139386000198460080261391a565b1980831691505092915050565b60006139518383613927565b9150826002028217905092915050565b61396b838361371b565b67ffffffffffffffff81111561398457613983613726565b5b61398e8254613784565b6139998282856138d4565b6000601f8311600181146139c857600084156139b6578287013590505b6139c08582613945565b865550613a28565b601f1984166139d6866137b5565b60005b828110156139fe578489013582556001820191506020850194506020810190506139d9565b86831015613a1b5784890135613a17601f891682613927565b8355505b6001600288020188555050505b50505050505050565b7f4e487b7100000000000000000000000000000000000000000000000000000000600052601160045260246000fd5b6000613a6b82612e59565b9150613a7683612e59565b9250828201905080821115613a8e57613a8d613a31565b5b92915050565b6000602082019050613aa96000830184613071565b92915050565b7f6e6f742043657274696669656400000000000000000000000000000000000000600082015250565b6000613ae5600d8361309a565b9150613af082613aaf565b602082019050919050565b60006020820190508181036000830152613b1481613ad8565b9050919050565b7f5175616c697479436865636b6572526f6c653a2063616c6c657220646f65732060008201527f6e6f74206861766520746865205175616c697479436865636b657220726f6c65602082015250565b6000613b7760408361309a565b9150613b8282613b1b565b604082019050919050565b60006020820190508181036000830152613ba681613b6a565b9050919050565b7f6e6f7420506c616e6e6564000000000000000000000000000000000000000000600082015250565b6000613be3600b8361309a565b9150613bee82613bad565b602082019050919050565b60006020820190508181036000830152613c1281613bd6565b9050919050565b7f6e6f742041756469746564000000000000000000000000000000000000000000600082015250565b6000613c4f600b8361309a565b9150613c5a82613c19565b602082019050919050565b60006020820190508181036000830152613c7e81613c42565b9050919050565b7f6e6f742041637175697265640000000000000000000000000000000000000000600082015250565b6000613cbb600c8361309a565b9150613cc682613c85565b602082019050919050565b60006020820190508181036000830152613cea81613cae565b9050919050565b7f6e6f74205061636b656400000000000000000000000000000000000000000000600082015250565b6000613d27600a8361309a565b9150613d3282613cf1565b602082019050919050565b60006020820190508181036000830152613d5681613d1a565b9050919050565b7f6e6f742050726f64756365640000000000000000000000000000000000000000600082015250565b6000613d93600c8361309a565b9150613d9e82613d5d565b602082019050919050565b60006020820190508181036000830152613dc281613d86565b9050919050565b7f6e6f742043757474656400000000000000000000000000000000000000000000600082015250565b6000613dff600a8361309a565b9150613e0a82613dc9565b602082019050919050565b60006020820190508181036000830152613e2e81613df2565b9050919050565b7f6e6f7420466f7253616c65000000000000000000000000000000000000000000600082015250565b6000613e6b600b8361309a565b9150613e7682613e35565b602082019050919050565b60006020820190508181036000830152613e9a81613e5e565b9050919050565b7f70616964456e6f75676800000000000000000000000000000000000000000000600082015250565b6000613ed7600a8361309a565b9150613ee282613ea1565b602082019050919050565b60006020820190508181036000830152613f0681613eca565b9050919050565b6000613f1882612e59565b9150613f2383612e59565b9250828203905081811115613f3b57613f3a613a31565b5b92915050565b7f526f6c65733a206163636f756e7420616c72656164792068617320726f6c6500600082015250565b6000613f77601f8361309a565b9150613f8282613f41565b602082019050919050565b60006020820190508181036000830152613fa681613f6a565b9050919050565b7f526f6c65733a206163636f756e7420697320746865207a65726f20616464726560008201527f7373000000000000000000000000000000000000000000000000000000000000602082015250565b600061400960228361309a565b915061401482613fad565b604082019050919050565b6000602082019050818103600083015261403881613ffc565b9050919050565b7f526f6c65733a206163636f756e7420646f6573206e6f74206861766520726f6c60008201527f6500000000000000000000000000000000000000000000000000000000000000602082015250565b600061409b60218361309a565b91506140a68261403f565b604082019050919050565b600060208201905081810360008301526140ca8161408e565b905091905056fea26469706673582212200a04023155d7424c5f9f1d7b3feaeed8613ac2806805fb933b7e530a127c423964736f6c63430008110033",
  "immutableReferences": {},
  "source": "// SPDX-License-Identifier: MIT\r\n\r\npragma solidity >=0.6.00;\r\n\r\n// Importing the necessary sol files\r\nimport \"../core/Ownable.sol\";\r\nimport \"../access/roles/ConsumerRole.sol\";\r\nimport \"../access/roles/TextileRole.sol\";\r\nimport \"../access/roles/ProducerRole.sol\";\r\nimport \"../access/roles/QualityCheckerRole.sol\";\r\n\r\n// Define a contract 'Supplychain'\r\ncontract SupplyChain is\r\n    Ownable,\r\n    TextileRole,\r\n    QualityCheckerRole,\r\n    ConsumerRole,\r\n    ProducerRole\r\n{\r\n    // Define a variable called 'sku' for Stock Keeping Unit (SKU)\r\n    uint256 sku_cnt;\r\n\r\n    // yarn_upc -> yarnItem\r\n    mapping(uint256 => YarnItem) yarnItems;\r\n    // fabric_upc -> fabricItems\r\n    mapping(uint256 => FabricItem) fabricItems;\r\n    // fabric_upc -> yarn_upc[]\r\n    mapping(uint256 => uint256[]) fabricYarns;\r\n\r\n    // Define enum 'State' with the following values:\r\n    enum YarnState {\r\n\t\tPlanned,\r\n\t\tAcquired,\r\n\t\tAudited,\r\n\t\tProcessed\r\n\t}\r\n    YarnState constant defaultYarnState = YarnState.Planned;\r\n\r\n    enum FabricState {\r\n        Created,\r\n        Cutted,\r\n        Produced,\r\n        Certified,\r\n        Packed,\r\n        ForSale,\r\n        Purchased\r\n    }\r\n    FabricState constant defaultFabricState = FabricState.Created;\r\n\r\n    // Define a struct 'YarnItem' with the following fields:\r\n    struct YarnItem {\r\n        uint256 sku; // Stock Keeping Unit (SKU)\r\n        uint256 upc; // Universal Product Code (UPC), generated by the Textile, goes on the package, can be verified by the Consumer\r\n        address ownerID; // Metamask-Ethereum address of the current owner as the product moves through stages\r\n        address originTextileID; // Metamask-Ethereum address of the Textile\r\n        string originTextileName; // Textile Name\r\n        string originTextileInformation; // Textile Information\r\n        string originTextileLatitude; // Textile Latitude\r\n        string originTextileLongitude; // Textile Longitude\r\n        string acquisitionNotes; // Acquisition Notes\r\n        string auditNotes; // Autit Notes\r\n        YarnState itemState; // Product State as represented in the enum above\r\n    }\r\n\r\n    // Define a struct 'FabricItem' with the following fields:\r\n    struct FabricItem {\r\n        uint256 sku; // Stock Keeping Unit (SKU)\r\n        uint256 upc; // Universal Product Code (UPC), generated by the Procuder, goes on the package, can be verified by the Consumer\r\n        address ownerID; // Metamask-Ethereum address of the current owner as the product moves through stages\r\n        uint256 productID; // Product ID potentially a combination of upc + sku\r\n        string productNotes; // Product Notes\r\n        uint256 productPrice; // Product Price\r\n        address producerID; // Metamask-Ethereum address of the Producer\r\n        address consumerID; // Metamask-Ethereum address of the Consumer\r\n        string certifyNotes; // Certify Notes\r\n        FabricState itemState; // Product State as represented in the enum above\r\n    }\r\n\r\n    // Define events of Yarns\r\n    event YarnPlanned(uint256 yarnUpc);\r\n    event YarnAcquired(uint256 yarnUpc);\r\n    event YarnAudited(uint256 yarnUpc);\r\n    event YarnProcessed(uint256 yarnUpc);\r\n\r\n    // Define events of Fabrics\r\n    event FabricCreated(uint256 fabricUpc);\r\n    event FabricBlended(uint256 fabricUpc, uint256 yarnUpc);\r\n    event FabricProduced(uint256 fabricUpc);\r\n    event FabricPacked(uint256 fabricUpc);\r\n    event FabricCertified(uint256 fabricUpc);\r\n    event FabricForSale(uint256 fabricUpc);\r\n    event FabricPurchased(uint256 fabricUpc);\r\n\r\n    // Define a modifer that verifies the Caller\r\n    modifier verifyCaller(address _address) {\r\n        require(msg.sender == _address, \"verifyCaller: unexpected caller\");\r\n        _;\r\n    }\r\n\r\n    // Define a modifier that checks if the paid amount is sufficient to cover the price\r\n    modifier paidEnough(uint256 _price) {\r\n        require(msg.value >= _price, \"paidEnough\");\r\n        _;\r\n    }\r\n\r\n    // Define a modifier that checks the price and refunds the remaining balance\r\n    modifier checkValue(uint256 _fabricUpc) {\r\n        _;\r\n        uint256 _price = fabricItems[_fabricUpc].productPrice;\r\n        uint256 amountToReturn = msg.value - _price;\r\n        payable(fabricItems[_fabricUpc].consumerID).transfer(amountToReturn);\r\n    }\r\n\r\n    // Define a modifier that checks if an yarnItem.state of a upc is Planned\r\n    modifier isPlanned(uint256 _yarnUpc) {\r\n        require(yarnItems[_yarnUpc].itemState == YarnState.Planned, \"not Planned\");\r\n        _;\r\n    }\r\n\r\n    // Define a modifier that checks if an yarnItem.state of a upc is Acquired\r\n    modifier isAcquired(uint256 _yarnUpc) {\r\n        require(yarnItems[_yarnUpc].itemState == YarnState.Acquired, \"not Acquired\");\r\n        _;\r\n    }\r\n\r\n    // Define a modifier that checks if an yarnItem.state of a upc is Audited\r\n    modifier isAudited(uint256 _yarnUpc) {\r\n        require(yarnItems[_yarnUpc].itemState == YarnState.Audited, \"not Audited\");\r\n        _;\r\n    }\r\n\r\n    // Define a modifier that checks if an yarnItem.state of a upc is Processed\r\n    modifier isProcessed(uint256 _yarnUpc) {\r\n        require(yarnItems[_yarnUpc].itemState == YarnState.Processed, \"not Processed\");\r\n        _;\r\n    }\r\n\r\n    // Define a modifier that checks if an fabricItem.state of a upc is Created\r\n    modifier isCreated(uint256 _fabricUpc) {\r\n        require(fabricItems[_fabricUpc].itemState == FabricState.Created, \"not Created\");\r\n        _;\r\n    }\r\n\r\n    // Define a modifier that checks if an fabricItem.state of a upc is Cutted\r\n    modifier isBlended(uint256 _fabricUpc) {\r\n        require(fabricItems[_fabricUpc].itemState == FabricState.Cutted, \"not Cutted\");\r\n        _;\r\n    }\r\n\r\n    // Define a modifier that checks if an fabricItem.state of a upc is Produced\r\n    modifier isProduced(uint256 _fabricUpc) {\r\n        require(fabricItems[_fabricUpc].itemState == FabricState.Produced, \"not Produced\");\r\n        _;\r\n    }\r\n\r\n    // Define a modifier that checks if an fabricItem.state of a upc is Packed\r\n    modifier isPacked(uint256 _fabricUpc) {\r\n        require(fabricItems[_fabricUpc].itemState == FabricState.Packed, \"not Packed\");\r\n        _;\r\n    }\r\n\r\n    // Define a modifier that checks if an fabricItem.state of a upc is Certified\r\n    modifier isCertified(uint256 _fabricUpc) {\r\n        require(fabricItems[_fabricUpc].itemState == FabricState.Certified, \"not Certified\");\r\n        _;\r\n    }\r\n\r\n    // Define a modifier that checks if an fabricItem.state of a upc is ForSale\r\n    modifier isForSale(uint256 _fabricUpc) {\r\n        require(fabricItems[_fabricUpc].itemState == FabricState.ForSale, \"not ForSale\");\r\n        _;\r\n    }\r\n\r\n    // Define a modifier that checks if an fabricItem.state of a upc is Purchased\r\n    modifier isPurchased(uint256 _fabricUpc) {\r\n        require(fabricItems[_fabricUpc].itemState == FabricState.Purchased, \"not Purchased\");\r\n        _;\r\n    }\r\n\r\n    // In the constructor\r\n    // set 'sku' to 1\r\n    // set 'upc' to 1\r\n    constructor() payable {\r\n        sku_cnt = 1;\r\n    }\r\n\r\n    // Transfer Eth to owner and terminate contract\r\n    function kill() public onlyOwner {\r\n        selfdestruct(payable(owner()));\r\n    }\r\n\r\n    // Define a function 'yarnPlannedItem' that allows a Textile to mark an item 'Planned'\r\n    function yarnPlannedItem(\r\n        uint256 _yarnUpc,\r\n        address _originTextileID,\r\n        string calldata _originTextileName,\r\n        string calldata _originTextileInformation,\r\n        string calldata _originTextileLatitude,\r\n        string calldata _originTextileLongitude\r\n    ) public onlyTextile {\r\n        // Add the new item as part of Acquisition\r\n        yarnItems[_yarnUpc].sku = sku_cnt;\r\n        yarnItems[_yarnUpc].upc = _yarnUpc;\r\n        yarnItems[_yarnUpc].ownerID = msg.sender;\r\n        yarnItems[_yarnUpc].originTextileID = _originTextileID;\r\n        yarnItems[_yarnUpc].originTextileName = _originTextileName;\r\n        yarnItems[_yarnUpc].originTextileInformation = _originTextileInformation;\r\n        yarnItems[_yarnUpc].originTextileLatitude = _originTextileLatitude;\r\n        yarnItems[_yarnUpc].originTextileLongitude = _originTextileLongitude;\r\n        // Update state\r\n        yarnItems[_yarnUpc].itemState = YarnState.Planned;\r\n        // Increment sku\r\n        sku_cnt = sku_cnt + 1;\r\n        // Emit the appropriate event\r\n        emit YarnPlanned(_yarnUpc);\r\n    }\r\n\r\n    // Define a function 'yarnAcquisitionItem' that allows a Textile to mark an item 'Acquired'\r\n    function yarnAcquisitionItem(uint256 _yarnUpc, string calldata _acquisitionNotes)\r\n        public\r\n        onlyTextile\r\n        isPlanned(_yarnUpc)\r\n    {\r\n        // Add the new item as part of Acquisition\r\n        yarnItems[_yarnUpc].ownerID = msg.sender;\r\n        yarnItems[_yarnUpc].acquisitionNotes = _acquisitionNotes;\r\n        // Update state\r\n        yarnItems[_yarnUpc].itemState = YarnState.Acquired;\r\n        // Emit the appropriate event\r\n        emit YarnAcquired(_yarnUpc);\r\n    }\r\n\r\n    // Define a function 'yarnAuditItem' that allows a QualityChecker to mark an item 'Audited'\r\n    function yarnAuditItem(uint256 _yarnUpc, string calldata _auditNotes)\r\n        public\r\n        onlyQualityChecker\r\n        isAcquired(_yarnUpc)\r\n    {\r\n        // Add the new item as part of Acquisition\r\n        yarnItems[_yarnUpc].auditNotes = _auditNotes;\r\n        // Update state\r\n        yarnItems[_yarnUpc].itemState = YarnState.Audited;\r\n        // Emit the appropriate event\r\n        emit YarnAudited(_yarnUpc);\r\n    }\r\n\r\n    // Define a function 'yarnProcessItem' that allows a Textile to mark an item 'Processed'\r\n    function yarnProcessItem(uint256 _yarnUpc)\r\n        public\r\n        onlyTextile\r\n        isAudited(_yarnUpc)\r\n        // verifyCaller(yarnItems[_yarnUpc].ownerID) // Call modifier to verify caller of this function\r\n    {\r\n        // Update the appropriate fields\r\n        yarnItems[_yarnUpc].itemState = YarnState.Processed;\r\n        // Emit the appropriate event\r\n        emit YarnProcessed(_yarnUpc);\r\n    }\r\n\r\n    function fabricCreateItem(\r\n        uint256 _yarnUpc,\r\n        uint256 _productID\r\n    ) public onlyProducer {\r\n        // Add the new item as part of Acquisition\r\n        fabricItems[_yarnUpc].sku = sku_cnt;\r\n        fabricItems[_yarnUpc].upc = _yarnUpc;\r\n        fabricItems[_yarnUpc].productID = _productID;\r\n        fabricItems[_yarnUpc].ownerID = msg.sender;\r\n\t\t// Update state\r\n        fabricItems[_yarnUpc].itemState = FabricState.Created;\r\n        // Increment sku\r\n        sku_cnt = sku_cnt + 1;\r\n        // Emit the appropriate event\r\n        emit FabricCreated(_yarnUpc);\r\n    }\r\n\r\n    function fabricBlendItem(uint256 _fabricUpc, uint256 _yarnUpc)\r\n        public\r\n        onlyProducer\r\n\t\tverifyCaller(fabricItems[_fabricUpc].ownerID)\r\n    {\r\n\t\t// Take ownership of yarn\r\n\t\tyarnItems[_fabricUpc].ownerID = msg.sender;\r\n\t\t// Blend the '_fabricUpc' fabric with '_yarnUpc' yarn\r\n\t\tfabricYarns[_fabricUpc].push(_yarnUpc);\r\n\t\t// Update state\r\n        fabricItems[_fabricUpc].itemState = FabricState.Cutted;\r\n        // Emit the appropriate event\r\n        emit FabricBlended(_fabricUpc, _yarnUpc);\r\n    }\r\n\r\n\tfunction fabricProduceItem(uint256 _fabricUpc, string calldata _productNotes, uint256 _productPrice)\r\n        public\r\n        onlyProducer\r\n\t\tverifyCaller(fabricItems[_fabricUpc].ownerID)\r\n\t\tisBlended(_fabricUpc)\r\n    {\r\n        fabricItems[_fabricUpc].producerID = msg.sender;\r\n        fabricItems[_fabricUpc].productNotes = _productNotes;\r\n        fabricItems[_fabricUpc].productPrice = _productPrice;\r\n\t\t// Update state\r\n        fabricItems[_fabricUpc].itemState = FabricState.Produced;\r\n        // Emit the appropriate event\r\n        emit FabricProduced(_fabricUpc);\r\n    }\r\n\r\n\tfunction fabricCertifyItem(uint256 _fabricUpc, string calldata _certifyNotes)\r\n        public\r\n        onlyQualityChecker\r\n\t\tisProduced(_fabricUpc)\r\n    {\r\n\t\tfabricItems[_fabricUpc].certifyNotes = _certifyNotes;\r\n\t\t// Update state\r\n        fabricItems[_fabricUpc].itemState = FabricState.Certified;\r\n        // Emit the appropriate event\r\n        emit FabricCertified(_fabricUpc);\r\n    }\r\n\r\n\tfunction fabricPackItem(uint256 _fabricUpc)\r\n        public\r\n        onlyProducer\r\n\t\tverifyCaller(yarnItems[_fabricUpc].ownerID)\r\n\t\tisCertified(_fabricUpc)\r\n    {\r\n\t\t// Update state\r\n        fabricItems[_fabricUpc].itemState = FabricState.Packed;\r\n        // Emit the appropriate event\r\n        emit FabricPacked(_fabricUpc);\r\n    }\r\n\r\n\tfunction fabricSellItem(uint256 _fabricUpc)\r\n        public\r\n        onlyConsumer\r\n\t\tisPacked(_fabricUpc)\r\n    {\r\n        fabricItems[_fabricUpc].consumerID = msg.sender;\r\n\t\t// Update state\r\n        fabricItems[_fabricUpc].itemState = FabricState.ForSale;\r\n        // Emit the appropriate event\r\n        emit FabricForSale(_fabricUpc);\r\n    }\r\n\r\n\tfunction fabricBuyItem(uint256 _fabricUpc)\r\n        public\r\n\t\tpayable\r\n        onlyConsumer\r\n\t\tisForSale(_fabricUpc)\r\n\t\tpaidEnough(fabricItems[_fabricUpc].productPrice)\r\n\t\tcheckValue(_fabricUpc)\r\n    {\r\n\t\tfabricItems[_fabricUpc].ownerID = msg.sender;\r\n        fabricItems[_fabricUpc].consumerID = msg.sender;\r\n\t\t// Update state\r\n        fabricItems[_fabricUpc].itemState = FabricState.Purchased;\r\n        // Transfer money to producer\r\n        uint256 price = fabricItems[_fabricUpc].productPrice;\r\n        payable(fabricItems[_fabricUpc].producerID).transfer(price);\r\n        // Emit the appropriate event\r\n\t    emit FabricPurchased(_fabricUpc);\r\n    }\r\n\r\n    // Functions to fetch data\r\n    function fetchFabricItemBufferOne(uint256 _fabricUpc)\r\n        external\r\n        view\r\n        returns (\r\n\t\t\tuint256 sku,\r\n\t\t\tuint256 upc,\r\n\t\t\taddress ownerID,\r\n\t\t\tuint256 productID,\r\n\t\t\tstring memory productNotes,\r\n\t\t\tuint256 productPrice,\r\n\t\t\taddress producerID,\r\n\t\t\taddress consumerID,\r\n\t\t\tstring memory certifyNotes,\r\n\t\t\tuint256[] memory yarns,\r\n\t\t\tuint256 itemState\r\n        )\r\n    {\r\n\t\t\tsku\t\t\t= fabricItems[_fabricUpc].sku;\r\n\t\t\tupc\t\t\t= fabricItems[_fabricUpc].upc;\r\n\t\t\townerID\t\t= fabricItems[_fabricUpc].ownerID;\r\n\t\t\tproductID\t\t= fabricItems[_fabricUpc].productID;\r\n\t\t\tproductNotes\t= fabricItems[_fabricUpc].productNotes;\r\n\t\t\tproductPrice\t= fabricItems[_fabricUpc].productPrice;\r\n\t\t\tproducerID\t\t= fabricItems[_fabricUpc].producerID;\r\n\t\t\tconsumerID\t\t= fabricItems[_fabricUpc].consumerID;\r\n\t\t\tcertifyNotes\t= fabricItems[_fabricUpc].certifyNotes;\r\n\t\t\tyarns\t\t\t= fabricYarns[_fabricUpc];\r\n\t\t\titemState\t\t= uint256(fabricItems[_fabricUpc].itemState);\r\n        return (\r\n\t\t\tsku,\r\n\t\t\tupc,\r\n\t\t\townerID,\r\n\t\t\tproductID,\r\n\t\t\tproductNotes,\r\n\t\t\tproductPrice,\r\n\t\t\tproducerID,\r\n\t\t\tconsumerID,\r\n\t\t\tcertifyNotes,\r\n\t\t\tyarns,\r\n\t\t\titemState\r\n        );\r\n    }\r\n\r\n    // Functions to fetch data\r\n    function fetchYarnItemBufferOne(uint256 _yarnUpc)\r\n        public\r\n        view\r\n        returns (\r\n\t\t\tuint256 sku,\r\n\t\t\tuint256 upc,\r\n\t\t\taddress ownerID,\r\n\t\t\taddress originTextileID,\r\n\t\t\tstring memory originTextileName,\r\n\t\t\tstring memory originTextileInformation,\r\n\t\t\tstring memory originTextileLatitude,\r\n\t\t\tstring memory originTextileLongitude\r\n        )\r\n    {\r\n\t\t\tsku\t\t\t= yarnItems[_yarnUpc].sku;\r\n\t\t\tupc\t\t\t= yarnItems[_yarnUpc].upc;\r\n\t\t\townerID\t\t\t= yarnItems[_yarnUpc].ownerID;\r\n\t\t\toriginTextileID\t= yarnItems[_yarnUpc].originTextileID;\r\n\t\t\toriginTextileName\t= yarnItems[_yarnUpc].originTextileName;\r\n\t\t\toriginTextileInformation\t= yarnItems[_yarnUpc].originTextileInformation;\r\n\t\t\toriginTextileLatitude\t\t= yarnItems[_yarnUpc].originTextileLatitude;\r\n\t\t\toriginTextileLongitude\t\t= yarnItems[_yarnUpc].originTextileLongitude;\r\n        return (\r\n\t\t\tsku,\r\n\t\t\tupc,\r\n\t\t\townerID,\r\n\t\t\toriginTextileID,\r\n\t\t\toriginTextileName,\r\n\t\t\toriginTextileInformation,\r\n\t\t\toriginTextileLatitude,\r\n\t\t\toriginTextileLongitude\r\n        );\r\n    }\r\n\r\n\r\n    // Functions to fetch data\r\n    function fetchYarnItemBufferTwo(uint256 _yarnUpc)\r\n        public\r\n        view\r\n        returns (\r\n\t\t\tstring memory acquisitionNotes,\r\n\t\t\tstring memory auditNotes,\r\n\t\t\tuint256 itemState\r\n        )\r\n    {\r\n\t\t\tacquisitionNotes\t= yarnItems[_yarnUpc].acquisitionNotes;\r\n\t\t\tauditNotes\t\t= yarnItems[_yarnUpc].auditNotes;\r\n\t\t\titemState \t\t= uint256(yarnItems[_yarnUpc].itemState);\r\n        return (\r\n\t\t\tacquisitionNotes,\r\n\t\t\tauditNotes,\r\n\t\t\titemState\r\n        );\r\n    }\r\n\r\n}",
  "sourcePath": "C:\\Users\\lukas\\Companies\\Mindo.IOT\\Projects\\SUPPLY-CHAIN-FOR-SMEs\\contracts\\base\\SupplyChain.sol",
  "compiler": {
    "name": "solc",
    "version": "0.8.17+commit.8df45f5f.Emscripten.clang"
  },
  "schemaVersion": "3.4.11",
  "updatedAt": "2022-12-11T06:38:36.966Z",
  "devdoc": {
    "kind": "dev",
    "methods": {},
    "version": 1
  },
  "userdoc": {
    "kind": "user",
    "methods": {
      "isOwner()": {
        "notice": "Check if the calling address is the owner of the contract"
      },
      "owner()": {
        "notice": "Look up the address of the owner"
      },
      "renounceOwnership()": {
        "notice": "Define a function to renounce ownerhip"
      },
      "transferOwnership(address)": {
        "notice": "Define a public function to transfer ownership"
      }
    },
    "version": 1
  }
}